:400000000080002011000000910900009109000008B5044B1A6803F53F5302331A6000F0BFFC00BFFA46004010B5054C237833B9044B13B10448AFF300800123237010BD88
:40004000C082FF1F00000000C8200000084B10B51BB108490848AFF300800848036803B910BD074B002BFBD0BDE81040184700BF00000000C482FF1FC8200000C880FF1F40
:400080000000000008B5002000F0D8FE08BD00BF684620F007018D4619B572B6EFF311841E4B1B68DBB20F2B10D9103B23F0030202F1604202F564421168DB0003F0180380
:4000C000E0229A400A4022FA03F306E00F2B03D1134B1B681B0E00E0002383F31188114A136801331360012B01D101F039FE62B6FFF7C8FF72B684F3118801F099F8094A33
:400100001368013B13601BB901F033FE01F0F7FD62B6BDE819408546704700BF04ED00E020ED00E04883FF1F08B562B645F6BF52054B1A60054A136843F00203136000203C
:4001400001F072F9FBE700BF14E000E010E000E008B5032000F006FA72B600F0C7F901F0F9FC01F08FFD01F07FFD62B601F0C0F9134A136843F00503136000F0F9F918B173
:40018000104801F001FD02E00F4801F0FDFC01221146002000F0D4FC01221146104600F0CFFC022000F058FC032000F055FC042000F052FC012000F04FFC01F07BF908BD3E
:4001C00010E000E0CC200000E820000008B500F0DBF9FCE708B501F07DFD012802D1002001F0DAF808BD00BF684620F007018D4619B572B6EFF311841E4B1B68DBB20F2B93
:4002000010D9103B23F0030202F1604202F564421168DB0003F01803E0229A400A4022FA03F306E00F2B03D1134B1B681B0E00E0002383F31188114A136801331360012BED
:4002400001D101F08DFD62B6FFF7C4FF72B684F3118800F0EDFF094A1368013B13601BB901F087FD01F04BFD62B6BDE819408546704700BF04ED00E020ED00E04883FF1F4F
:4002800038B54FF00003184A5278022A01D1164B1B784FF00001DBB20BB94FF00101134B9A68197000215960022159705569936873B13DB90CE0996855F8240000F064FEED
:4002C000013400E00024094B9B681A699442F2D3064B5B78022B03D1044883685B689847032000F05FF938BDD880FF1FF080FF1F30B583B04FF00001174B9B78022B08D11B
:40030000154B1B88ADF80430ADF8003043F3072300E00023002B00DD5900104B9A68197000215960022159705569936873B13DB90CE0996855F8240000F026FE013400E042
:400340000024064B9B681A699442F2D3012000F029F903B030BD00BFCC80FF1FD880FF1F38B500231946184A5278022A01D1164A1178154A5268632A00D80B46134A9168CE
:40038000137000235360022353704D698B6873B13DB90CE0996855F8240000F0F5FD013400E00024094B9B681A699442F2D3074B5B78022B03D1054883685B689847022029
:4003C00000F0F0F838BD00BFD880FF1FE480FF1F30B583B0224B9B681A68002A3BD0204A128802A820F8082D1B689847E8B9BDF80010ADF804101A4B9A68198000215960E4
:4004000002219970556993682BB33DB923E0996855F8240000F0B8FD013400E00024104B9B681A699442F2D315E00D4B03229A709B68DD69DB6873B13DB90CE0D96855F898
:40044000240000F0A1FD013400E00024044B9B689A699442F2D3002000F0A4F803B030BDCC80FF1F00B583B000230193012000F00BFE01A9032000F067FD019800F036FD55
:40048000019A0121014800F0B1F8EFE70021000010B582B000240194062000F0F5FD01A9022000F051FD019800F020FD019B13F0020F09D022460221064800F07FF8013440
:4004C00014F5807F00D90024019A0121024800F08DF8E1E70C2100001C21000008B5012000F0C6F800F0E6FF08BD00BF08B501F0D1F901F0E3F9002008BD00BF70B506460A
:400500000D46002001F0DEF9002001F0E7F984B2012001F0E3F980B2C4F5F3630633002B00DA0F331B11C0F5F0600730002800DA0F30001113F1800F02DB7F2B03DC03E014
:400540006FF07F0300E07F2310F1800F02DB7F2803DC03E06FF07F0000E07F2033702870002070BD08B5002101F0D2F8002008BD044B1B7803F0080303F0FF0003B1012038
:40058000704700BFC080FF1F08B5054B1B780F2B04D101F0DDF80022014B1A70002008BDDC82FF1F012303FA00F0034A1378184310700020704700BFDC82FF1FF8B50646CA
:4005C0000F46154600240DE006EBC4039A88B5FBF2F302FB13531BB956F83430002098470134A4B2BC42EFD30020F8BDF8B505460E461746002409E005EBC403586838421C
:4006000002D055F8343098470134A4B2B442F3D30020F8BD08B50378012B03D1012001F03FFB02E0002001F03BFB002008BD00BF08B5007810B901F0CDFA01E001F0CAFA9F
:40064000002008BD30B583B0054600248DF8074002A901F8024D0DF10700FFF74FFF9DF907302B709DF806306B70204603B030BD104B5B68034413F1011F01D80D4A536086
:400680000C4B1B69034413F1011F01D8094A1361084BDB69034413F1011F01D8054AD361044B9B6A184410F1011F01D8014B9862704700BFCC80FF1FFEE700BFF0B40022BC
:4006C000174611E050F82760F3B226F0FF0608E001EB420511F812406D78A5550132013BDBB2002BF4D10137242FEBD9F0BC704708B50A46002101F0DEFC08BD38B50E224F
:40070000284B1A801823284A13701925023215800232137040F2CF7102321180023213700222224B1A7008224FF040231A70032103F5007319701E4B1B78DBB21D490B70DD
:400740001D4B1A8041F25122023B1A8000240CE01A4B1B7803F0010343EA440404F003044FF4F07001F084FB013D0DB1032CEFD115B90320FFF7A0FF114B4FF480721A80DC
:4007800007221A7000220F490A704820023108701A700222033B1A700B4A137843F00703137038BD80400040824000400043004008010049A146004022420040254200402B
:4007C0000440004006400040A2430040F8B5164B1B78DBB2154E3478E4B2154F3D78EDB203F00701134A11701B090132137044F00303337045F003033B7003220E4B1A70C1
:4008000040230E4A13700232137030220C4B1A70202203331A700A2000F070FF3D7034704422084B1A70F8BDCF010049F8460040F94600406E5800400D5100400159004068
:40084000205B00407658004008B501F029FC08BD38B572B63A4A137843F00403137000240CE0384D630019194A0011462A44084691882858FFF73CFF0134E4B2072CF0D91E
:4008800000240BE02F49A3001819420088188022416B006BFFF7D8FF0134E4B2002CF1D029494FF09040FFF709FF04212748FFF71FFF042226492748FFF7C6FF264A1378DC
:4008C00043F0020313701032137843F002031370224C237843F040032370A2F58632513A137843F01003137008221D491D48FFF7ABFF0A221C491D48FFF7A6FF08221C49C0
:400900001C48FFF7A1FF08221B491C48FFF79CFF1B4A137843F0080313701A4D61232B70FFF7ECFE81232B700122174B1A70FFF74DFF0E2221461548FFF786FF38BD00BF70
:40094000E8460040D021000094000048007600403C0800480876004003500140A0430040180800480251004020080048C05100402C08004812510040340800482251004073
:40098000224300400048004004000840B043004008B501F059FB03680C2B00D1FEE7FEE708B5104E104D16E029686B68AC68002204E051F8040B43F8040B0432A242F8D1DB
:4009C000E868002203E0002143F8041B04328242F9D11035013E002EE6D101F03BFBFFF7A3FBFEE701000000C024000008B5114A114B1A60114A136843F400731360002371
:400A00000AE0032B03D80E4A52F8231000E00D490D4A42F8231001332F2BF2D90B4B1A780B4B1A70084A0B4B1A60FFF711FF00F083FD08BD0004FA050CED00E014ED00E0B9
:400A400000000000910900000080FF1FBC760040C080FF1F08ED00E038B5EFF3108572B604284ED82D4B53F82030002B4BD02B4A013B42F820302A4B53F82030032B07D111
:400A80000222274B43F820200022264B43F8202000F03EFC244B1B68002B36D1234B1C6800F014FCB0F1FF3F31D0214B53F82020204B1B689A422CD9B4F1FF3F03D0022158
:400AC000174A42F824101C4A52F820201343194A13600022124B43F8202000F0B3FB174B53F820304BB10024144B43F8204040F0004001F047F920460CE001F043F900201C
:400B000008E0032006E0042004E0002002E0002000E0002085F3108838BD00BF4881FF1FF481FF1F0883FF1F4883FF1FDC81FF1FBC2300002483FF1F9C230000E082FF1F6C
:400B4000F8B5EFF3108472B6012825D800EB4005AB00184DEB5803EB4306B500164E75598D421BD34AB103EB43039E00124B1E44B3689A4214D3954214D3A9B103010F4DC4
:400B8000EB589BB90301EE180127EF507260013900F086F800200AE0032008E0082006E0082004E0082002E0082000E0072084F31088F8BD40230000682300000097FF1FE4
:400BC00018B108B5C368984708BD704708B508B1406800E00020042816D80C4B53F8203093B10A4A013B42F82030094B53F82030032B07D10222064B43F820200022054B0A
:400C000043F8202000F084FB08BD00BF4881FF1FF481FF1F0883FF1F18B1034640689B6801E00023184604281DD80F4A52F82020CAB10E4A52F82010032914D010B50C4C86
:400C400054F820201A4344F820200A4A52F82020134207D0012905D10222044B43F8202000F056FB10BD704774230000F481FF1F0883FF1FF482FF1F80B108B50378012B56
:400C800006D013B1032B06D008BDFFF79FFF08BDFFF7C2FF08BDFFF793FF08BD704700BF30B400EB40029300214AD258214B03EBC2035C68B4F1FF3F04D11E4B03EBC2024A
:400CC00050602DE01C4B03EB04139B6899420AD2184D05EBC2025060174A02EB04125B1A93601DE01C46144B03EB04139A68891ADB68B3F1FF3F05D00F4A02EB03129268C5
:400D00009142EFD2B3F1FF3F05D00B4A02EB031295686D1A9560084A02EB0414E0601C46054B03EB00108160C46030BC704700BF402300000481FF1F0097FF1F38B5394ABF
:400D400002EBC0035C6852F83030013342F8303000EB40018A0034498A58934203D90022304B43F83020B4F1FF3F59D02F4B03EB04139B68002B4ED1214600E019462B4BA5
:400D800003EB0113DB68B3F1FF3F05D0274A02EB03129268002AF1D0244A02EB01114FF0FF32CA601F4A02EBC0004360B3F1FF3F07D01E4A02EB03139A68013A9A6000E0E4
:400DC0002C4604EB44029300194A13441B7A7BB904EB44029300164A13445A68154B53F8223003EB83039A0013481044FFF744FF0E4B03EB0413DD68596821B1013920462C
:400E0000FFF74EFF03E024010022084B1A51B5F1FF3FD5D138BD054A02EB0414013BA36038BD00BF0481FF1F682300000097FF1F40230000602300001823000038B5EFF3EE
:400E4000108572B6002838D1FFF778FF204B1B68002B34D11F4B1C6800F038FAB0F1FF3F2FD01D4B53F820201C4B1B689A422AD9B4F1FF3F03D00221194A42F82410194A42
:400E800052F820201343154A13600022144B43F8202000F0D7F9144B53F820304BB10024114B43F8204040F0004000F06BFF20460AE000F067FF002006E0032004E0002016
:400EC00002E0002000E0002085F3108838BD00BF4883FF1FDC81FF1FBC2300002483FF1FF481FF1F9C230000E082FF1FEFF3108372B6114A1168114A126882B9B1F1FF3FF1
:400F00000FD00F4A52F821206AB110B40D4C54F8212022EA000044F82100002007E0022002E0022000E0012083F31088704783F3108810BC704700BFDC81FF1F4883FF1F19
:400F4000742300000883FF1F04280FD80B4B53F820306BB10A4B53F82030032B0AD059B1084B53F820300B60002070470320704701207047072070470E20704774230000D3
:400F8000F481FF1F0883FF1F38B5EFF3108472B6042853D8324B53F82030002B50D0314B53F82030032B4DD02F4D55F820200A4345F820202D4A52F82020114244D0012BE7
:400FC00044D10222274B43F8202000F0A1F9284B1B68002B3CD1274B1D6800F077F9B0F1FF3F37D0244B53F82020244B1B689A4232D9B5F1FF3F03D002211A4A42F8251056
:401000001F4A52F8202013431C4A13600022154B43F8202000F016F91A4B53F820304BB10025184B43F8205040F0004000F0AAFE284612E000F0A6FE00200EE003200CE04A
:4010400001200AE0072008E0002006E0002004E0002002E0002000E0002084F3108838BD74230000F481FF1F0883FF1FF482FF1F4883FF1FDC81FF1FBC2300002483FF1FB7
:401080009C230000E082FF1F38B5EFF3108472B6364B1D68364B1B68002B5DD1B5F1FF3F5CD0344B53F82530002B59D0324B53F82530034256D1314B43F825000122304B7D
:4010C00043F825202F4B53F825002F490B6823EA00030B602D4B43F825202D4B53F82520224B1A6000F0F2F8B0F1FF3F06D0294B53F82020244B1B689A420DD81B4B186812
:40110000B0F1FF3F03D000221D4B43F8202040F0004000F037FE1AE00021194A42F82010184A52F820201343174A136000F08AF8164B53F8203043B10022144B43F8202007
:4011400040F0004000F01EFE01E000F01BFE00200A4B43F8250006E0022004E0022002E0012000E0002084F3108838BDDC81FF1F4883FF1F742300000883FF1FF482FF1FE7
:40118000F481FF1F9C2300002483FF1FE082FF1FE081FF1FBC23000008B500F053F8084B53F8203043B10022054B43F8202040F00040044B186008BD024B186008BD00BF2E
:4011C000E082FF1F4C83FF1F10B500F07FF8124B1B68B0F1FF3F1AD0104A52F82010104A1268914213D9B3F1FF3F03D002240D4941F8234000210B4B43F820100A4B53F8F7
:4012000020301A43064B1A60FFF7C6FF10BD43F00043064A136010BDDC81FF1FBC2300002483FF1FF481FF1F9C2300004C83FF1F034B1B6813B10022014B1A60704700BF57
:401240003C83FF1FF0B4184B19880B0A174AD356B3F1FF3F01D1535601E008335BB2144D55F82320134850F82200134E56F8224045F82340114D2F6846F822702A60B4F169
:40128000FF3F09D10E4A42F82340012202FA03F321EA0301044B19800A4B19680A4A42F820101860F0BC70472083FF1F0C2200009C81FF1FD896FF1F2081FF1F1C83FF1F74
:4012C0005C81FF1FDC81FF1FE081FF1F0C4B1A88130A0C49CB56B3F1FF3F01D18B5601E008335BB2B3F1FF3F06D0074A52F82320064B53F8220070474FF0FF30704700BFC0
:401300002083FF1F0C2200009C81FF1FD896FF1F30B4144B53F82020134C2368134951F823502560124C44F823004FF0FF3441F82340104951F82210A1420AD10E4951F8A5
:4013400020400E480188214301800D4941F8223002E0064840F82130064941F8223030BC704700BF3481FF1F1C83FF1F2081FF1FD896FF1F5C81FF1FBC2300002083FF1FFD
:401380009C81FF1F0022014B1A60FEE74483FF1F08B5FFF7F7FF00BF08B572B6FFF7F8FF10B150F8210070474FF0FF30704700BF0122014B1A60FEE74483FF1F70B505461E
:4013C000124B53F8306000241CE0104B03EBC50321465868FFF7E4FF0D4A52F82030013B42F820300B4B53F82030032B07D10222084B43F820200022074B43F82020FFF7FF
:4014000087FF0134B442E0D370BD00BF0C2300004881FF1FF481FF1F0883FF1F18B908B5FFF7CCFF08BD7047194B1A4ADA621A4A9A631A4ADA63EFF3108272B6184B1B68B7
:4014400013BB10B5044600F053F8164B1C600122134B1A602046FFF7E1FFFFF737FFB0F1FF3F0ED0104B53F82030104A11680B43136000220E4B43F82020FFF7E3FE00F010
:4014800081FC62B6FFF794FF82F31088072070470080FF1F451D0000091D0000910000004483FF1F2097FF1F9C2300002483FF1FF481FF1F08B5EFF3108272B6094B19686D
:4014C000094B1B6833B94FF0FF30084B43F82100002000E0022010B9084600F0ACFC82F3108808BDDC81FF1F4883FF1F0C81FF1F38B50D4B1D68EFF3108472B600F0F2FB15
:401500000A4A136843F07F431360094B2B650121042000F023F9074A136843F01003136084F3108838BD00BF08ED00E020ED00E0E901000000E100E00B4A7F23137080216E
:40154000517007E0DA0002F1804202F5F042013BDBB21370002BF5D1DB0003F1804303F5F04300221A7070473882FF1F172815D831B103010A495A5C42F020025A5405E0D4
:40158000030107495A5C02F0DF025A540001044A835C43F00103835400207047012070471070004017280CD80001074BC1180A7942F004020A71C25C42F00102C2540020E7
:4015C00070470120704700BF1070004017280BD80001064A835C03F0F103490001F00E011943815400207047012070471070004041F6FF73994201D14FF4005141F6FF7328
:401600009A4201D14FF40052172808D8C00000F1804000F5EC408180C280002070470120704700BF172805D8034B03EB0010417200207047012070471070004017281BD849
:4016400010B4C00000F1804404F5EC44D201D2B201F07F01114321709DF804201201D2B203F00F03134363709DF8083003F00F03A3700020E07001E00120704710BC70474C
:4016800010B500F0FDFB0A4B5B78182B0BD9084A1478013B5370E30003F1804303F5F0431B78137000E0FF2400F0EEFB204610BD3882FF1F10F0800F0CD111F4704F0BD183
:4016C000C00000F1804000F5F04001808270C37000207047012070470120704710F0800F08D1C00000F1804000F5F0408180C280002070470120704701BE704708B5034BB6
:401700001B7A00FB03F000F0B3FB08BD4082FF1F0E4B1A7802F0FC0200F00300104318701A7842F080021A701A7802F07F021A7049011A7801F0600102F09F02114319703D
:401740001A7842F010021A70704700BF834300400122014B1A7070478443004038B504460D46072902D90020FFF7C6FF1F2C02D90020FFF7C1FF04F01F0000F1604000F5D1
:4017800064406D01EDB2057038BD00BF10B541F6FF734FF480420121022000F061F9084C207041F6FF731A460121042000F076F96070044800F090F9002000F093F910BDBE
:4017C0002C83FF1FF918000070B52C4C2078FFF7E9FE6078FFF7E6FE294B1B78FF2B03D1FFF74EFF264B1870254D2878062302460421FFF75FFF214E341DA4B2224645F651
:40180000A0312878FFF76AFF29783078FFF70AFF6B78FF2B02D1FFF733FF6870184D6878072302460421FFF745FF164A92B221466878FFF753FF114C69786078FFF7F2FE6B
:4018400001212078FFF792FE01216078FFF78EFE00F016FB0C4A137843F02003137000F013FB0A4B1A7842F001021A701A7842F002021A700122064B1A6070BD2C83FF1F13
:401880005082FF1FACACFF1F976500407764004080E200E008B5074B9B6823B9FFF776FF0122044B9A6000F0C5F8FFF78DFF024B1B7808BD2C83FF1F6864004008B500F00A
:4018C000C7F808BD044B1B7803F0FF020BB90028F8D01046704700BF68640040C0F10100034B33F91030034A1088181A00B27047ACACFF1FB4ACFF1F704700BF08B50A28BD
:401900000FD00C2802D0082806D102E04FF4805209E04FF4807206E00020FFF7EDFE002201E04FF480620021094B198042F2107303FB02F303F6C413064A82FB0302DB174B
:40194000C3EBE223044A1360044B198008BD00BFB2ACFF1FAD8BDB68B8ACFF1FB4ACFF1F10B500F08DFA0446184A137843F0010313701032137843F00103137002F5AA52E9
:401980000832137843F0030313701822104B1A70013B1A7842F040021A701A7802F0FC021A70C822053B1A700222A3F597530C3B1A70084A137843F0080313700A20FFF7C6
:4019C0009DFE204600F060FA10BD00BFAB43004006590040275B004010B504460A280DD00C2802D0082804D101E0C22207E0422205E00020FFF780FEC22200E08222034B19
:401A00001A702046FFF77AFF10BD00BF0259004008B5064A137843F0060313700C20FFF7DBFF0022024B1A8008BD00BF01590040B0ACFF1F08B5054B1B7823B9FFF7E8FFD3
:401A40000122024B1A70FFF78BFF08BD3883FF1F024A137843F001031370704700590040F0B583B016461F460B4C012525700023019300932B460A4601462846FFF7DEFD31
:401A80003A4631462078FFF7B3FD02212078FFF79DFD207803B0F0BD5282FF1FF0B583B016461F460B4D00242C700194009423460A4601462046FFF7C1FD3A463146287831
:401AC000FFF796FD02212878FFF780FD287803B0F0BD00BF5382FF1F014B1B681864704708ED00E04001C0B2014B1870704700BF00E400E07222084B1A702022A3F2011381
:401B00001A7006225D3B1A70472210331A7000224F331A70704700BF8A65004010B500F0AFF904460A4A137843F020031370A2F20112137843F0100313700232137843F07C
:401B40001003137000F0B8F8204600F09DF910BD9A65004008B5054B1B7823B9FFF7CAFF0122024B1A70FFF7D9FF08BD3983FF1F034B1B7813F0040FFAD1024B1870704747
:401B80006B6400404B64004038B5074B1B782BB938BDFFF7EDFF0134A4B201E005460024285D0028F5D138BD3983FF1F024A137843F08003137070477E640040014B1870C0
:401BC000704700BF0E640040014B1870704700BF4E640040014B1870704700BF2E640040014B1870704700BF8E640040014B1878704700BF6E640040014B1878704700BF33
:401C00005E64004008B501E0FFF7F6FFFFF7EEFF10F0100FF8D108BD10B5114A137803F0C00343F0090313700E4C237843F001032370FF20FFF7C2FFFF20FFF7C5FF7F2059
:401C4000FFF7C8FF0020FFF7CBFF00F019F9237843F01003237000F017F9FFF7D3FF10BD7E6400409E64004008B5054B1B7823B9FFF7D2FF0122024B1A70FFF797FF08BDCA
:401C80003B83FF1F054A137843F0040313701032137843F004031370704700BFA2430040044A137803F0BF03800100F0400018431070704700510040054A137843F0020318
:401CC00013701032137843F002031370704700BFA2430040024B1878C0F3C000704700BF0151004018484FF47F0102680A43026016486FF07F4102680A4002607047144804
:401D00004FF080510160704772B611484FF000610160FFF759FA0F48006800F0D5F858B10C4800684FF080730B4A0C490FB40FB46FF00600004700BF6FF0060062B60047DE
:401D400062B600DF08B0704720ED00E01CED00E004ED00E04C83FF1F851D0000411D0000EFF30880054908600548006880F3088870470248006880F3088870475482FF1F7A
:401D80002882FF1F411C8900154A11440968154A136899421AD0F0B444464D4656465F46F0B400B5104C9B002344EFF308851D60116089002144096881F3088802BC8E46A6
:401DC000F0BCA046A946B246BB46F0BC002806DB00B500F06DF802BC8E46FFF7D3BF7047F82300002883FF1F2C82FF1FF0B444464D4656465F46F0B400B5EFF3038308B4AA
:401E00008000174901440968164A0244EFF30883136088471448804704BC4FF08070024382F3038801BC8646F0BCA046A946B246BB46F0BC704780000A4901440A6882F3FB
:401E4000088804BC4FF08070024382F3038808BC9E46F0BCA046A946B246BB46F0BC7047D0230000EC96FF1F911E0000000000000230800803D000BF01380046FCD1704788
:401E8000EFF3108072B6704780F31088704700BF08B572B6014B1868FFF7CDFFDC81FF1F08B5024B1868FFF7A1FF08BDDC81FF1F08B562B6FFF7F4FF72B600F041F8014BA7
:401EC000186808BD4C83FF1F00280BDA20F000400130054B53F82000044B1B68181A18BF0120704701207047F82300002883FF1F054B53F82020054B53F820309A4201D184
:401F000001207047002070474881FF1F8823000008B5FFF797F9084B53F8203043B10022054B43F8202040F00040044B186008BD024B186008BD00BFE082FF1F4C83FF1F9C
:401F400038B5364B1C680022354B1A60354A52F82430013342F82430334B53F824502046FFF7C6FF012801D0A54204D103222F4B43F8242003E002222C4B43F824202C4BCE
:401F800053F824102B4A136823EA010313602A4B53F82440214B1C60B5F1FF3F0FD0234B53F82530032B07D10222204B43F825200022224B43F825202846FFF7A9F9FFF731
:401FC00085F9B0F1FF3F0BD1B4F1FF3F03D00022164B43F8242044F00044194B1C6038BD184B53F82020134B1B689A4208D800220E4B43F8242044F00044114B1C6038BDD9
:4020000000210A4A42F82010094A52F820201343084A1360FFF77CFF38BD00BFDC81FF1F3C83FF1F4881FF1F0C81FF1FF481FF1F9C2300002483FF1FE081FF1F0883FF1F7B
:402040004C83FF1FBC230000014B1868704700BFB882FF1F0E4B70B51E460E4C0025E41AA410A54204D056F8253098470135F8E700F014FA084B094C1E46E41AA4100025B4
:40208000A54204D056F8253098470135F8E770BDA8240000A8240000A8240000B024000010B5431E0A44914204D011F8014B03F8014FF8E710BD03460244934202D003F8D1
:4020C000011BFAE770470000000000005265736574207468726F756768205761746368646F67200A000000005265736574207468726F75676820506F776572200A00000012
:40210000F10200000100000001000000D10300000A00000061030000640000008102000004000000010002000000000015060000000000000000000000000000000000005F
:402140000000000000000000000000000000000000000000310600000000000000000000000000000000000000000000000000000000000000000000000000000000000028
:40218000040000000000000001000000A021000000000000000000000000000000000000020000004506000000000000010000000000000001000000CC210000000000001D
:4021C00000000000000000000000000003000000305100404000F0510040100000000140001000140140800400190140000300400140000A004C01400002005001402000F8
:40220000801801409807004880000000FF00010102020202030303030303030304040404040404040404040404040404050505050505050505050505050505050505050599
:4022400005050505050505050505050506060606060606060606060606060606060606060606060606060606060606060606060606060606060606060606060606060606EA
:40228000060606060606060606060606070707070707070707070707070707070707070707070707070707070707070707070707070707070707070707070707070707076A
:4022C000070707070707070707070707070707070707070707070707070707070707070707070707070707070707070707070707070707070707070707070707070707071E
:4023000007070707070707070707070701000000142300000000000001000000020000000200000000000000FFFFFFFF00000000040000000000000000000000FFFFFFFF10
:402340000000000000000000000000000000000001000000000000000000000001000000000000000100000010270000010000000000000000000000000000000100000021
:40238000010000000000000001000000010000000100000001000000010000008000000001000000200000001000000004000000010000000200000004000000010000005A
:4023C0000100000020000000100000000400000051010000CD0100009104000065040000DD040000A11E0000A11E0000A11E0000A11E0000A11E00000000000000000000EE
:4024000000000000010000000200000000000000616C726D5F316D7300000000616C726D5F73797374656D0065765F6F6E5F6A6F79737469636B5F75706461746500000005
:4024400065765F316D73000065765F6F6E5F73706565645F757064617465000074736B5F696E69740000000074736B5F6261636B67726F756E64000074736B5F696F0000E9
:4024800074736B5F636F6E74726F6C0074736B5F73797374656D000043000000F8B500BFF8BC08BC9E4670474D000000ED090000F8B500BFF8BC08BC9E4670472900000067
:4024C000D0240000C880FF1FF8010000002A0000000000000000000000000000A4210000000000000000000078210000000000000000000050210000000000000000000090
:4025000028210000102400001C24000000000000FFFFFFFFFFFFFFFFFFFFFFFFFFFFFFFFFFFFFFFFFFFFFFFF01000000020000000300000004000000FFFFFFFF00000000F0
:40254000000000000500000004000000020000000100000001000000010000000100000001000000FFFFFFFFFFFFFFFFFFFFFFFFFFFFFFFFFFFFFFFFFFFFFFFFFFFFFFFF67
:40258000FFFFFFFFFFFFFFFFFFFFFFFFFFFFFFFFFFFFFFFFFFFFFFFFFFFFFFFFFFFFFFFFFFFFFFFFFFFFFFFFFFFFFFFFFFFFFFFFFFFFFFFFFFFFFFFFFFFFFFFFFFFFFFFF5B
:4025C000FFFFFFFFFFFFFFFFFFFFFFFFFFFFFFFFFFFFFFFFFFFFFFFFFFFFFFFFFFFFFFFFFFFFFFFFFFFFFFFFFFFFFFFFFFFFFFFFFFFFFFFFFFFFFFFFFFFFFFFF0300000014
:40260000030000000300000003000000030000002824000040240000482400005C2400006824000078240000802400008C240000ACACFF1F00000000B096FF1F84AAFF1F50
:402640007F800000030000000000E02EC05D00001800000000366E01FFFFFFFF00000000000000000000000000000000000000000000000000000000000000000000000074
:40268000982400000000000000000000000000000000000000000000000000000000000000000000000000000000000000000000000000000000000000000000000000005E
:4026C0005882FF1F000000000000000000000000000000000000000000000000000000000000000000000000000000000000000000000000000000000000000000000000E2
:402700000000000000000000000000000000000000000000000000000000000000000000000000000000000000000000000000000000000000000000000000000000000099
:402740000000000000000000000000000000000000000000000000000000000000000000000000000000000000000000000000000000000000000000000000000000000059
:402780000000000000000000000000000000000000000000000000000000000000000000000000000000000000000000000000000000000000000000000000000000000019
:4027C00000000000000000000000000000000000000000000000000000000000000000000000000000000000000000000000000000000000000000000000000000000000D9
:020000040003F7
:0200000480007A
:400000000145004005520040015B0040036400400265004001030140040501403B060140320701401E0801403B090140390A0140430B01402F0C0140400D01402D0E0140A9
:40004000300F014001150140161601405117014003180140451901402E1A01403E1B0140084001400741014008420140044301400445014004460140064701400448014020
:4000800001490140044C0140094D01400A50014002510140030100010103101061806440278489388B0F8E0D87018A728E0287208920A602EC0101010201040108010901F9
:4000C0000D011301140115011D012001240128012B0134013501580459045F018010822084088710884089088A808C048F0992019510960899029A049C029F44A202A3209F
:40010000A401A702A820AA10AC80AD04AE40B0FFB13EB301B740B902BA80BE01BF01D203D302D804D904DB04DC01DF0100C201250520079009880A480D08109A12C0130439
:4001400014201640172019011A021F202010228623B02408281029212A402D203188320A3310368A385039053C023E403F1069606B05870189088C108E809D20A602A72048
:40018000C07FC22FC47FCA2FCCDFCEBFE002EE045401580459045B0C5F0186088A018E0491049204940199019A08A202A703B203B301B408B502B604B704BE50BF40D418B3
:4001C000D804D90FDB04DC09DD10DF010010020103200480062009080A400B080C400E040F20124014101540181419482128230129082C502D0131203301370A3D603E048A
:400200005A025F806004614078017D808401854088408A048C018D408F139402954198109A409B019F0AA440A710C0A7C2EEC4A8CAC2CCC5CE70D611D80CDE11E050E420D2
:40024000EE04580459045F01800C81108213854086108A138C209303960C99099B109C119D1C9E0E9F22A12CA311A411A530A606A70CAD14AE08B010B360B420B60FB71FA2
:40028000B908BA80BE11C023C104C5E0C6C0C7B0C82AC9FFCAFFCBFFCEF0CF44D00CD401D804D904DA04DB04DC11DD11DF01E6C0EA40EB020080010102800481062807208F
:4002C0000A020B040C400D0810201140130A150416021C031D401E48250827112B102C402D042F02302032813540371138423A043B043E0A444045244C404F0156205702CC
:400300005E485F2188108A01904091049401954198409A4E9C109E209F08A124A441A508A710AA40B101B208C0F9C2A3C4ADCAD2CCBDCECBD0E0D6F0E020002A0102021469
:4003400004030503060416281C031E3421032403261C27012A152E203303340F363839083AA03F044002474049FF4A074BFF4C404D204EF04F055008580459045A045C012B
:400380005D015F01604061A862406320D608D804D904DB04DD90DF0100C0020803020401062008040C400D081010115013011504160A1D201E041F4027102B102C402E08E7
:4003C0002F4230143104320234103580360A384039013A043C023D143E843F2047104D404E025504560A5A80624089808B088E848F019541970199049C109F08A440A71066
:40040000AF08C033C2A4C4EFCAD2CCF7CEFBD020D608D808E410EC0200080601070112021B012A0D300832013301340236043F044020410645D046204701481A49FF4AFF14
:400440004BFF4DA04F04501852805405580459045A045B045C025D225F01604062C06440654066C068C06AC06CC06EC0D804D904DF010005050406400A400E010F3112082F
:40048000145015411601170418051A801B08220429042A012D402E013060330434103504370838443A403B113CC03D013F20400449014B2050205208531059015A887240EA
:4004C000C03CC2A8C4B2CA93CC6ECEBFD004D204D60BE810580459045F01890297019B04A602AD02AE01B002B304B401B502B701B920BF10D602D736D804D904DB0CDF01FE
:400500000040012002400488052106200A020B100D081002128813041420164018C019201AC02002210822A8280129242A022C802D20300831013243331034203504360A2D
:40054000380839203A403E603F105B046220684A69046B107180730479408240840188218A02916093109504964097049A409B049C209D20A080A202A44BA588AA42AB104C
:40058000AE01B404C0FBC225C43FCAAFCCEFCE3ED602D804DE08E004E202E801EA10EC02EE20580459045F01000802020308048206200742080509200A100E040F201020C8
:4005C000120814181A401B2020412108220A230428A129402B082C5030243240374A384039293E043F2040014138424048045201530482208308884889018A0890829204AD
:400600009642970898909C409E219F08A004A310A720A840A910AC84B108B380C0B7C26EC466CACFCCDECE6FD00FD204E080E202EE20000401C0053F083C093F0A020D01F7
:400640000E0313C0142715A41618170A1A041BC01C3F1DC81F3020102152230C240827C0281829C02C3C2E01302031C0321F3306350137383A083E015602571358045904BA
:400680005B045C115D105F01D804D904DF01009003800482058006200740088409080B060E040F2010A812021418181019091B0821142259280429082B802C102D802E203A
:4006C000325A3408374039543B023E043F205901695470A871407210886089108B809082920493049528969298989A209C209D40A108A202A310A420A708C0BBC267C46F71
:40070000CA77CC5FCE6FD601E8101302168030203B023E80C430CC10CE6056025B4097029B02A420D480D620860297029E029F40A420AB02E610EC809F40A420AB01EE2046
:400740005F029B02AF02D6011B042780C608C80144028E109B80AB04D004E4082408B020B740C820B404878092109B809C021040721088409210B402C408DC01E201E808C5
:40078000000701010A030C030D010E070F0110031A011C030003100A0023000C0F0200800E0001230C0F0320080000000C0C00000004020000030040002F0000040100901A
:4007C000030C0C23000800000E2C000F011000C02000000A0000004032060400010000CE30FFFFFF62A0F0410C000000000000000404040011010001000000000000400257
:400800000010301000101012000000000000000000000000000000000840400000030300800040808000800000000000000B0B000000000000101000100000000001000021
:400840000000000000000000000000000000000000000000000000000000000000000000000000000000000000000000000000000000000000000000000000000000000078
:400880000000000000000000000000000000000000000000000000000000000000000000000000000000000000000000000000000000000000000000000000000000000038
:4008C00000000000000000000000000000000000000000000000000000000000000000000000000000000000000000000000000000000000000000000000000000000000F8
:4009000000000000000000000000000000000000000000000000000000000000000000000000000000000000000000000000000000000000000000000000000000000000B7
:0200000490006A
:0400000000004005B7
:0200000490105A
:04000000BC90ACAF55
:0200000490303A
:02000000CEC46C
:0200000490402A
:4000000000000000000000000000000000000000000000000000000000000000000000000000000000000000000000000000000000000000000000000000000000000000C0
:400040000000000000000000000000000000000000000000000000000000000000000000000000000000000000000000000000000000000000000000000000000000000080
:400080000000000000000000000000000000000000000000000000000000000000000000000000000000000000000000000000000000000000000000000000000000000040
:4000C0000000000000000000000000000000000000000000000000000000000000000000000000000000000000000000000000000000000000000000000000000000000000
:0200000490501A
:0C00000000012E16106900012E25DF2DD6
:00000001FF